:100000000C9434000C9440000C943E000C943E0080
:100010000C943E000C943E000C943E000C943E0068
:100020000C943E000C943E000C943E000C943E0058
:100030000C943E000C943E000C943E000C943E0048
:100040000C943E000C943E000C943E000C943E0038
:100050000C943E000C943E000C943E000C943E0028
:100060000C943E000C943E0011241FBECFEFD8E04C
:10007000DEBFCDBF0E944F000C9459000C940000CD
:100080001F920F920FB60F9211244A9B02C05F98E5
:1000900001C05F9A0F900FBE0F901F901895579A4E
:1000A0005A9A80916900816080936900E89A7894F7
:0600B000FFCFF894FFCF22
:00000001FF
